:100000000C94381F0C94691F0C94691F0C94691F81
:100010000C94691F0C94691F0C94691F0C94691F40
:100020000C94691F0C94691F0C94691F0C94691F30
:100030000C94691F0C949AF10C94691F0C94691F1D
:100040000C94691F0C94D58F0C94691F0C94691F34
:100050000C94691F0C94691F0C948C890C94D2F435
:100060000C94691F0C9405790C94FB780C94691F0F
:100070000C94691F0C94691F0C94691F0C94691FE0
:100080000C94691F0C94691F0C94691F0C94691FD0
:100090000C94691F0C94691F0C94691F0C94691FC0
:1000A0000C94691F0C94691F0C94691F0C94691FB0
:1000B0000C94691F0C94691F0C94691F0C94691FA0
:1000C0000C94691F0C94691F0C94691F0C94691F90
:1000D0000C94691F0C94691F0C94691F0C94691F80
:1000E0000C94691F084AD73B3BCE016E84BCBFFD10
:1000F000C12F3D6C74319ABD56833DDA3D00C77FF8
:1001000011BED9E4BB4C3E916BAAAABE0000008090
:100110003F05A84CCDB2D44EB93836A9020C50B91F
:10012000918688083CA6AAAA2ABE000000803F004B
:100130000C9404220C940AF30C9431210C94207D2D
:100140000C94F5840C9497D40C9417220C943822B8
:100150000C94B5440C94B9F20C94393A0C94642183
:100160000C9437200C94761F0C9425D40C941522F3
:100170000C94E7F20C94AFF20C945D250C9457228A
:100180000C9419220C94B97E0C9484D40C94F683AC
:100190000C94447E0C947E350C943AC30C94EE7C03
:1001A0000C94CDF20C9407200C94A8460C94CC46E9
:1001B0000C94522A0C94332A0C9459200C94B0407D
:1001C0000C94A9D40C94903D0C94AAF20C94877BC7
:1001D0000C94973D0C94F9840C9437210C94FB8972
:1001E0000C9468830C94BB200C94933D0C9480D4A5
:1001F0000C94D2460C94A2F20C945F7B0C9491D494
:100200000C9496350C943CF30C94DB810C945EB208
:100210000C9427C30C9472D20C94C0460C948BAEF1
:100220000C9428F30C945D220C947CD40C9404213F
:100230000C9472D40C94387D0C94E5840C9424C3F3
:100240000C94D8460C94ED840C9438C30C94E1843F
:100250000D9472090C9453210C94B4220C94DE4733
:100260000C94C6460C9430C30C948DD40C9486BB6D
:100270000C9490800C944ABF0C94BC200C94F27C9B
:100280000C942C7D0C949A800C9427D40C9432F30B
:100290000C94AE460C94A5D40C94DE460C944B20E2
:1002A0000C94B21F0C949FD40C94327D0C94ADD45A
:1002B0000C94F1F20C949BD40C94B2D40C9438D5D9
:1002C0000C949B2E0C948C7B0C9413220C942D215B
:1002D0000C9421C30C94D8AE0C94BA460C942DC344
:1002E0000C94F1840C94DF1F0C94D6810C94A4AE72
:1002F0000C94C3F20C9457210C941EF30C94A68218
:100300000C94E9840C9443C20C94B4460C940936C2
:100310000C948B800C944F210C94D5F20C94375B89
:100320000C94741F0C94827B0C943DC30C94D98460
:100330000C94AC820C9481210C94DDF20C941B2261
:100340000C94F31F0C94E0810C94F1430C94AF1FB8
:100350000D9454090C94B3D40C94FC370C94E2B96A
:100360000C945B220C94DE3E0C9455220C94EAAE65
:100370000C942AC30C9434210C94F07C0C94D1225C
:100380000C9495800C94DD840C9457820C94E58138
:100390000C9478D40C9424D40C94B51F0C941B208A
:1003A0000C94B7D40C9433C30C94CB7B0C94267D63
:1003B0000C946ABE0C9478790C94FBF20C948D3DED
:1003C0000C94A27F0C947A220C9414F30C9487D48E
:1003D0000C94CB1F0C9416C30C94FB7C0C94AA2297
:1003E0000C9459220C947EBD0C9438820C942920D4
:1003F0000C94B7354E414E494E495459494E46CD5D
:10040000CCCC3D0AD7233C17B7D13877CC2B3295CB
:1004100095E6241FB14F0A000020410000C84200A9
:10042000401C4620BCBE4CCA1B0E5AAEC59D740073
:10043000407A10F35A00A0724E18090010A5D4E8B3
:100440000000E87648170000E40B54020000CA9A46
:100450003B000000E1F50500008096980000004098
:10046000420F000000A086010000001027000000DD
:1004700000E803000000006400000000000A000023
:100480000000000100000000002C76D888DC674FD7
:100490000823DFC1DFAE59E1B1B796E5E3E453C607
:1004A0003AE651997696E8E6C28426EB898C9B62FF
:1004B000ED407C6FFCEFBC9C9F40F2BAA56FA5F4A9
:1004C00090055A2AF75C936B6CF9676DC11BFCE0D1
:1004D000E40D47FEF520E6B500D0ED902E03009424
:1004E0003577050080841E080000204E0A000000B9
:1004F000C80C333333330F986E12831141EF8D21C3
:1005000014893BE65516CFFEE6DB18D1844B381B29
:10051000F77C1D901DA4BBE424203284725E2281EE
:1005200000C9F124ECA1E53D27434F4D4D554E49FF
:10053000434154494F4E0044525952554E00455282
:10054000524F525300494E464F004543484F0046D4
:10055000494C414D454E5420454E544C4144454E26
:100560000046494C414D454E54204C4144454E00B7
:1005700046494C414D454E54205745434853454C00
:10058000004572726F722077726974696E672074A9
:100590006F20454550524F4D210A00363726033C07
:1005A0003D380E2E303E121A1C1808440AFF43082C
:1005B000090001627573793A207061757365642072
:1005C000666F7220696E7075740A00627573793A8D
:1005D0002070617573656420666F72207573657233
:1005E0000A00627573793A2070726F63657373697C
:1005F0006E670A004D36303000414E474548414C49
:1006000054454E005072696E7465722073746F7039
:100610007065642064756520746F206572726F72F6
:10062000732E2046697820746865206572726F7237
:1006300020616E6420757365204D39393920746FDF
:1006400020726573746172742E202854656D706514
:100650007261747572652069732072657365742E9A
:100660002053657420697420616674657220726518
:100670007374617274696E67290A004E6F20436853
:1006800065636B73756D2077697468206C696E653E
:10069000206E756D6265722C204C617374204C69FC
:1006A0006E653A20004E6F20436865636B73756D0D
:1006B0002077697468206C696E65206E756D62655F
:1006C000722C204C617374204C696E653A20006373
:1006D0006865636B73756D206D69736D61746368B4
:1006E0002C204C617374204C696E653A20004C6973
:1006F0006E65204E756D626572206973206E6F7431
:10070000204C617374204C696E65204E756D626576
:10071000722B312C204C617374204C696E653A2029
:10072000004D313130004D313137004D3331005300
:10073000442072656164206572726F720A00446FB2
:100740006E65207072696E74696E672066696C658B
:100750000A004B494C4C20636175736564206279D3
:10076000204B494C4C20627574746F6E2F70696E0B
:100770000A004B494C4C20636175736564206279B3
:1007800020746F6F206D75636820696E6163746992
:1007900076652074696D65202D2063757272656EB3
:1007A0007420636F6D6D616E643A200042697474E9
:1007B00065206E65757374617274656E0044525580
:1007C000434B455220474553544F505054002553F6
:1007D0003A202553004142474542524F4348454E37
:1007E000005072696E7465722068616C7465642E65
:1007F000206B696C6C28292063616C6C6564210A2C
:10080000006563686F3A004572726F723A00486F14
:1008100074656E6420746F6F20636F6C640A0020CF
:10082000580020204D61783A2000200020204D699A
:100830006E3A2000536F667420656E6473746F7037
:10084000733A20004D3630303A207A75206B616C57
:100850007400486F74656E6420746F6F20636F6CF2
:10086000640A00496E736572742066696C616D6517
:100870006E7420616E64207072657373206275748B
:10088000746F6E0A00507265737320627574746FB2
:100890006E20746F2068656174206E6F7A7A6C6563
:1008A0000A004D32342053256C642054256C6400BA
:1008B0004739322E392045257300473120462564BB
:1008C000004739322E39205A2573004731205A30DB
:1008D0002046323030004731205825732059257387
:1008E000204633303030004D3130362050256920DD
:1008F000532569004D31303920532569004D313978
:100900003020532569004D32303020442573004794
:1009100039322E392045305A300A47315A320A4787
:100920003238523058590020496E76616C69642023
:100930006578747275646572200047322F473320E2
:1009400062616420706172616D65746572730A0022
:1009500057617274656E2E2E2E004B6C69636B208E
:100960007A756D20466F72747365747A656E004691
:10097000616C736368657220447275636B657200A5
:10098000534F564F4C2053563031004D6F746F7299
:10099000656E20616E6765736368616C7465740071
:1009A000456E642066696C65206C6973740A004248
:1009B0006567696E2066696C65206C6973740A00EE
:1009C000286E6F2066696C65290043757272656ECA
:1009D000742066696C653A20005344207072696E19
:1009E00074696E67206279746520004E6F742053BD
:1009F00044207072696E74696E670A00256973001D
:100A000025696D20256973002569682025696D2099
:100A100025697300256964202569682025696D2092
:100A20002569730025697920256964202569682076
:100A300025696D20256973005072696E7420746990
:100A40006D653A20006BC3BC686C742E2E2E006856
:100A500065697A742E2E2E0045202553006F6B0099
:100A60006F6666004A0545053E053705290544457C
:100A70004255473A004D3131322053687574646FE6
:100A8000776E004D313133205300534F564F4C2079
:100A900053563031204F46462E004348414D424583
:100AA000525F54454D5045524154555245004D4FAB
:100AB00054494F4E5F4D4F44455300544845524DA5
:100AC000414C5F50524F54454354494F4E0041559D
:100AD000544F5245504F52545F53445F5354415406
:100AE00055530050524F4D50545F535550504F5234
:100AF0005400454D455247454E43595F504152536E
:100B0000455200434153455F4C494748545F425268
:100B1000494748544E45535300544F47474C455F4F
:100B20004C494748545300534F4654574152455F30
:100B3000504F574552004255494C445F504552432F
:100B4000454E54004C4556454C494E475F44415430
:100B500041005A5F50524F4245004155544F4C4559
:100B600056454C005052494E545F4A4F4200505235
:100B70004F4752455353004155544F5245504F52E1
:100B8000545F54454D5000564F4C554D45545249B5
:100B90004300454550524F4D0042494E4152595F26
:100BA00046494C455F5452414E53464552005345C9
:100BB0005249414C5F584F4E5F584F464600464998
:100BC000524D574152455F4E414D453A4D61726C11
:100BD000696E20322E302E302028476974487562A5
:100BE0002920534F555243455F434F44455F55526B
:100BF0004C3A68747470733A2F2F67697468756221
:100C00002E636F6D2F4D61726C696E4669726D77E0
:100C10006172652F4D61726C696E2050524F544F56
:100C2000434F4C5F56455253494F4E3A312E302078
:100C30004D414348494E455F545950453A534F56EC
:100C40004F4C20535630312045585452554445524C
:100C50005F434F554E543A3120555549443A6365E8
:100C60006465326132662D343161322D3437343867
:100C70002D396231322D633535633632663336377E
:100C800066660A002F2F20004D31343520533C6911
:100C90006E6465783E206F7574206F662072616E99
:100CA00067652028302D31290A0020540020520089
:100CB000416363656C65726174696F6E3A205000C0
:100CC0003F4A206F7574206F662072616E676520E1
:100CD00028302E303120746F20302E33290A002026
:100CE000466C6F773A200050726F74656374656468
:100CF0002050696E0A0020643A0020693A00207092
:100D00003A00496E76616C69642065787472756426
:100D100065720A0064697300656E0043290A006108
:100D2000626C656420286D696E2074656D702000AA
:100D3000436F6C64206578747275646573206172AA
:100D400065200046696C616D656E742072756E6F0A
:100D500075742000486F6D657665727361747A20D2
:100D6000616B746976004572723A20546F6F206629
:100D700061722100546F6F206661722066726F6D20
:100D8000207265666572656E636520706F696E744A
:100D90000A00454550524F4D204F4B0A003F4B2013
:100DA00076616C7565206F7574206F662072616E58
:100DB00067652028302D3130292E0A004164766184
:100DC0006E6365204B3D004F4646004F4E00506F0E
:100DD0007765722D6C6F7373207265636F766572C1
:100DE000792000496E76616C69642065787472754B
:100DF0006465720A004361703A00220A00656E71F0
:100E000075657565696E672022006F6B00526573AA
:100E1000656E643A200043616E6E6F74206F70657A
:100E20006E20737562646972200020573A00426533
:100E30007474206BC3BC686C742E2E2E00426574D3
:100E400074206865697A742E2E2E002364656669A5
:100E50006E652044454641554C545F004B6420006C
:100E60004B6920004B702000504944204175746F3D
:100E700074756E652066696E6973686564212050BB
:100E8000757420746865206C617374204B702C201D
:100E90004B6920616E64204B6420636F6E737461D4
:100EA0006E74732066726F6D2062656C6F77206957
:100EB0006E746F20436F6E66696775726174696FD7
:100EC0006E2E680A00504944204175746F74756E27
:100ED00065206661696C6564212074696D656F7554
:100EE000740A00546865726D616C2052756E61778A
:100EF00061790048656174696E67206661696C6537
:100F00006400504944204175746F74756E652066A5
:100F100061696C6564212054656D706572617475DA
:100F2000726520746F6F20686967680A00204B64DF
:100F30003A2000204B693A2000204B703A20000AEA
:100F400020436C617373696320504944200A002078
:100F500054753A2000204B753A2000206D61783A94
:100F60002000206D696E3A200020643A2000206243
:100F70006961733A2000504944204175746F74755B
:100F80006E652073746172740A0050494420417583
:100F9000746F74756E65206661696C656421205498
:100FA000656D706572617475726520746F6F20680D
:100FB0006967680A00504944204175746F74756E02
:100FC00065206661696C65642120426164206578F2
:100FD000747275646572206E756D6265720A004583
:100FE00072723A207574663820666F6E74206E6F68
:100FF0007420696E697469616C697A65642E004554
:1010000072723A207574663820666F6E74206E6F47
:101010007420696E697469616C697A65642E004533
:1010200072723A207574663820666F6E74206E6F27
:101030007420696E697469616C697A65642E004C0C
:101040006164656E206D6D00456E746C6164656EE3
:10105000206D6D0046696C616D656E7464757263B8
:10106000686D65737365720061757300616E00452C
:1010700020696E206D6DC2B300566F727363687520
:101080006266616B746F72004B6F6E666967757232
:101090006174696F6E0056206D696E204C656572D3
:1010A00066616872740056206D696E200056206D6E
:1010B000617820450056206D6178205A0056206DD9
:1010C000617820590056206D617820580041206DCC
:1010D000617820450041206D6178205A0041206DE3
:1010E000617820590041206D617820580041204CE2
:1010F000656572666168727400412045696E7A7533
:10110000670042657363686C65756E6967756E67C5
:10111000004A756E6374696F6E20446576004520E1
:1011200053746570732F6D6D005A2053746570731E
:101130002F6D6D00592053746570732F6D6D0058BD
:101140002053746570732F6D6D004572772E2045A6
:10115000696E7374656C6C756E67656E003F0041F7
:10116000626272656368656E0042657374C3A474DD
:101170006967656E005765726B7365696E73746538
:101180006C6C756E67656E0053746570732F6D6D52
:10119000004A65726B0042657363686C65756E69C1
:1011A00067756E6700476573636877696E64696722
:1011B0006B6569740048617570746D656EC3BC00C1
:1011C0004265776567756E67003F004EC3A463682C
:1011D0007374652045636B650046657274696700CA
:1011E00057656974657200486F6D696E672058595C
:1011F0005A00556E526574205600556E5265742023
:101200006D6D005A2D537072756E67206D6D0056AE
:101210002045696E7A75670045696E7A7567206D3D
:101220006D004175746F6D2E2045696E7A7567008B
:101230004B6F6E66696775726174696F6E004265A7
:1012400074740044C3BC7365004CC3BC667465729F
:101250000054656D70657261747572004B6F6E66D7
:1012600069672E206C6164656E005374616E646101
:1012700072647765727465206C6164656E004B6F93
:101280006E6669672E2073706569636865726E00AB
:10129000576965646572682E206E2E205374726FD4
:1012A0006D612E0046696C616D656E7400617573C9
:1012B00000616E0052756E6F75742D53656E736F9D
:1012C000720045696E7A75670046696C616D656E7E
:1012D00074207765636873656C6E0048617570741F
:1012E0006D656EC3BC004D37303220542564004D0F
:1012F00036303020423020542564004D37303220C3
:101300003B2564004D37303120542564004D373083
:1013100032004D373031004D363030204230004BF6
:101320006F6E66696775726174696F6E006175735F
:1013300000616E0052756E6F75742D53656E736F1C
:1013400072004D65687220656E746C6164656E0034
:10135000447275636B2077656974657200464F52FD
:1013600054532E204F5054494F4E454E3A0044524C
:1013700055434B2050415553494552540020204479
:10138000C3BC73653A2000000C0D00FE0702260363
:10139000BC01FFFE0AFE08FE05080806000040F03A
:1013A000C88888987810050808060000C0F8888862
:1013B000888888F80505050600012030F8302005EA
:1013C00008080600002070F820202020E005090908
:1013D0000600FF2070A8A8B88888702005060606B9
:1013E0000001E08CEA8C8A0A0509090600FFF8A8CA
:1013F0008888888888A8F8050A0A0600FE205050C8
:10140000505088A8A8887003030306000340A0403A
:10141000FFFFFFFFFFFFFFFFFFFFFFFFFFFFFFFFDC
:10142000FFFFFFFFFFFF0000000605FF01070706A3
:10143000020080808080800080030303060105A0F5
:10144000A0A005060606000050F85050F850050907
:10145000090600FF2070A8A07028A87020050707C3
:10146000060000C8C810204098980507070600002D
:1014700040A0A040A8906801030306020580808078
:101480000309090601FF204040808080404020037E
:1014900009090601FF8040402020204040800507C8
:1014A0000706000020A8702070A82005050506008A
:1014B000012020F820200203030601FFC040800520
:1014C0000101060003F8020202060100C0C0050780
:1014D000070600000810102040408005070706009E
:1014E00000708898A8C8887003070706010040C0EC
:1014F00040404040E00507070600007088081020C3
:1015000040F8050707060000F80810300888700545
:10151000070706000010305090F810100507070666
:101520000000F880F0080888700507070600003002
:101530004080F0888870050707060000F808101042
:1015400020202005070706000070888870888870B2
:1015500005070706000070888878081060020505F6
:10156000060100C0C000C0C00206060601FFC0C0E0
:1015700000C0408003050506010120408040200591
:101580000303060002F800F8030505060101804088
:1015900020408005070706000070881020200020EA
:1015A0000507070600007088B8A8B880700507070F
:1015B000060000708888F8888888050707060000FC
:1015C000F04848704848F00507070600007088801A
:1015D00080808870050707060000F04848484848A2
:1015E000F0050707060000F88080F08080F8050706
:1015F00007060000F88080F080808005070706005D
:101600000070888080988870050707060000888829
:1016100088F8888888030707060100E040404040BA
:1016200040E0050707060000381010101090600514
:1016300007070600008890A0C0A09088050707064D
:101640000000808080808080F80507070600008801
:10165000D8A8888888880507070600008888C8A851
:101660009888880507070600007088888888887031
:10167000050707060000F08888F0808080050707CE
:1016800006000070888888A8906805070706000093
:10169000F08888F0A0908805070706000070888011
:1016A00070088870050707060000F8202020202019
:1016B0002005070706000088888888888870050745
:1016C0000706000088888888505020050707060014
:1016D0000088888888A8A850050707060000888821
:1016E0005020508888050707060000888850202071
:1016F0002020050707060000F80810204080F803A6
:1017000009090601FFE080808080808080E0050775
:101710000706000080404020101008030909060158
:10172000FFE020202020202020E005030306000504
:101730002050880501010600FEF803030306010599
:1017400080402005050506000070087888780507A8
:10175000070600008080F0888888F00505050600EF
:1017600000708080887005070706000008087888E8
:101770008888780505050600007088F080700507E8
:1017800007060000304840E04040400507070600DB
:10179000FE7088888878087005070706000080803A
:1017A000F0888888880307070601004000C0404091
:1017B00040E00409090601FE1000301010101090DE
:1017C0006005070706000080808890E09088030786
:1017D00007060100C04040404040E0050505060006
:1017E00000D0A8A8A8A8050505060000B0C88888EC
:1017F00088050505060000708888887005070706BB
:1018000000FEF0888888F080800507070600FE78D3
:10181000888888780808050505060000B0C880801B
:101820008005050506000078807008F005070706AA
:1018300000002020F820202018050505060000885B
:101840008888986805050506000088888850200566
:1018500005050600008888A8A850050505060000B3
:1018600088502050880507070600FE888888502089
:101870004080050505060000F8102040F80309091E
:101880000601FF20404040804040402001090906F9
:1018900002FF8080808080808080800309090601AB
:1018A000FF80404040204040408005030306000286
:1018B00048A890FFFFFFFFFFFFFFFFFFFFFFFFFFB5
:1018C000FFFFFFFFFFFFFFFFFFFFFFFFFFFFFFFF28
:1018D000FFFFFFFF0000000605FF010707060200EB
:1018E000800080808080800507070600FF2070A8A8
:1018F000A0A87020050707060000304840E04048D7
:10190000B0050505060000A8508850A80507070681
:1019100000008850F820F820200107070602008008
:10192000808000808080040808060100708060903C
:10193000906010E0030101060107A00607070600FA
:10194000007884B4A4B4847803050506010460A07B
:101950006000E00505050600002850A0502805039A
:1019600003060001F80808030101060103E0060769
:10197000070600007884B4A4A48478050101060059
:1019800007F8040404060105609090600507070647
:1019900000002020F8202000F8030505060104407F
:1019A000A02040E0030505060104C0204020C0033C
:1019B00003030601052040800507070600FE88880E
:1019C0008898E8808005080806000078E8E8E8685C
:1019D000282828020202060203C0C00302020601F0
:1019E000FE20C003050506010440C04040E0030599
:1019F0000506010540A04000E0050505060000A021
:101A0000502850A0050A0A06000040C04850605007
:101A1000B0507810050A0A06000040C048506050D7
:101A2000A8081038050A0A060000C0204830E05017
:101A3000B0507810050707060000200020204088DD
:101A400070050A0A060000402000708888F888881F
:101A500088050A0A060000102000708888F8888827
:101A600088050A0A060000205000708888F88888D7
:101A700088050A0A06000068B000708888F888881F
:101A8000880509090600005000708888F888888851
:101A9000050A0A060000205020708888F888888887
:101AA00005070706000078A0A0F0A0A0B805090966
:101AB0000600FE708880808088701060050A0A0623
:101AC0000000402000F88080F08080F8050A0A06B7
:101AD0000000102000F88080F08080F8050A0A06D7
:101AE0000000205000F88080F08080F80509090689
:101AF00000005000F88080F08080F8030A0A060198
:101B000000804000E04040404040E0030A0A0601F7
:101B100000204000E04040404040E0030A0A060147
:101B20000040A000E04040404040E00309090601B9
:101B300000A000E04040404040E0050707060000EC
:101B4000704848E8484870050A0A06000068B00076
:101B50008888C8A8988888050A0A060000402000DE
:101B600070888888888870050A0A0600001020009E
:101B700070888888888870050A0A0600002050004E
:101B800070888888888870050A0A06000068B00096
:101B900070888888888870050909060000500070E0
:101BA00088888888887005050506000188502050BF
:101BB000880509090600FF087098A8A8A8C87080C1
:101BC000050A0A06000040200088888888888870F6
:101BD000050A0A0600001020008888888888887016
:101BE000050A0A06000020500088888888888870C6
:101BF00005090906000050008888888888887005D3
:101C00000A0A0600001020008888502020202004A6
:101C1000070706010080E0909090E0800507070626
:101C20000000708890A09088B00508080600004069
:101C30002000700878887805080806000010200049
:101C400070087888780508080600002050007008A1
:101C500078887805080806000068B0007008788861
:101C60007805070706000050007008788878050896
:101C700008060000205020700878887805050506C1
:101C80000000702870A0780507070600FE708880A5
:101C9000887010600508080600004020007088F079
:101CA00080700508080600001020007088F0807021
:101CB0000508080600002050007088F080700507B5
:101CC0000706000050007088F080700308080601C5
:101CD00000804000C0404040E003080806010020AA
:101CE0004000C0404040E003080806010040A0005A
:101CF000C0404040E0030707060100A000C040408C
:101D000040E00509090600005020500878888888BE
:101D10007005080806000068B000B0C8888888050B
:101D200008080600004020007088888870050808B0
:101D300006000010200070888888700508080600DA
:101D40000020500070888888700508080600006828
:101D5000B000708888887005070706000050007082
:101D6000888888700505050600012000F800200518
:101D700005050600007898A8C8F0050808060000C8
:101D80004020008888888870050808060000102018
:101D900000888888887005080806000020500088A0
:101DA00088888870050707060000500088888888A2
:101DB00070050A0A0600FE1020008888885020401E
:101DC000800509090600FE8080F0888888F0808000
:101DD0000509090600FE500088888850204080448C
:101DE0007275636B2070617573696572742E2E2E27
:101DF00000447275636B2069737400706175736958
:101E00006572742E2E2E0000576172746520617504
:101E1000662064656E00537461727420646573009B
:101E200046696C616D656E747765636873656C7324
:101E30002E2E2E005761727465206175660048650C
:101E4000726175736E61686D6500646573204669C3
:101E50006C616D656E74732E2E2E0044C3BC736569
:101E6000206865697A7420617566006269747465BA
:101E70002077617274656E2E2E2E00004B6E6F708F
:101E800066206472C3BC636B656E20756D0044C3CD
:101E9000BC7365206175667A756865697A656E00E0
:101EA0000046696C616D656E742065696E6C65676E
:101EB000656E00756E64204B6E6F7066206472C331
:101EC000BC636B656E00756D20666F72747A757396
:101ED00065747A656E00576172746520617566007D
:101EE0004C6164656E206465730046696C616D6564
:101EF0006E74732E2E2E004B6E6F7066206472C34C
:101F0000BC636B656E20756D00447275636B2066F3
:101F10006F72747A757365747A656E0000576172BA
:101F200074652061756600466F72747365747A65B6
:101F30006E2064657300447275636B732E2E2E00E1
:101F400057617274652061756600456E746C6164DA
:101F5000656E206465730046696C616D656E7473AF
:101F60002E2E2E00313135003A200030003A20006C
:101F70004245443A4550434F53203130304B005294
:101F8000756E617761792057617463683A204F4EAE
:101F9000004D61782054656D7000323630003A2073
:101FA000004D696E2054656D700030003A20004588
:101FB000313A204550434F53203130304B004E656D
:101FC000747A7465696C004D45414E2057454C4C00
:101FD000003A200050726F746F6B6F6C6C00312E82
:101FE00030003A20004261756472617465003131DD
:101FF00035323030003A200052414D505320312EBE
:102000003300687474703A2F2F736F766F6C33647B
:102010002E636F6D00534F564F4C20535630310096
:10202000322E302E30004D61726C696E005468653E
:10203000726D6973746F72656E00426F6172642DA8
:10204000496E666F00447275636B65722D496E66EA
:102050006F0048617570746D656EC3BC004D3130A2
:1020600030300053442D447275636B20616262729C
:10207000656368656E0053442D447275636B20661A
:102080006F72747365747A656E0057696564657202
:10209000682E206E2E205374726F6D612E003F00EB
:1020A0005A7572C3BC636B0053746F7000447275D1
:1020B000636B20766F6D204D656469756D004D32E0
:1020C00031004D656469756D206765746175736372
:1020D000687400C39C6265722064656E20447275EA
:1020E000636B6572004B6F6E6669677572617469C8
:1020F0006F6E0045636B656E206E6976656C6C690A
:102100006572656E0054656D7065726174757200FC
:102110004265776567756E670053442D4472756339
:102120006B20666F72747365747A656E00457277A2
:102130002E2045696E7374656C6C756E67656E00F4
:102140004A757374696572756E670053442D4472E5
:1021500075636B2061626272656368656E005344EB
:102160002D447275636B2070617573696572656E5D
:10217000004B65696E204D656469756D00496E663A
:102180006F003F0053746172746520447275636B15
:102190000041626272656368656E00447275636BCC
:1021A000656E0043616E6E6F7420656E746572209B
:1021B0007375626469723A2000022E2E00486175C0
:1021C00070746D656EC3BC004265776567756E6738
:1021D000004572772E2045696E7374656C6C756E60
:1021E00067656E004D3834004D6F746F72656E20F8
:1021F0006465616B746976696572656E0047323833
:10220000004175746F20486F6D650048617570748A
:102210006D656EC3BC00504C4120457874722E2011
:10222000566F7277C3A4726D656E00504C412042A8
:1022300065747420566F7277C3A4726D656E00501A
:10224000455447204265747420566F7277C3A47258
:102250006D656E005045544720457874722E2056A7
:102260006F7277C3A4726D656E0054656D70657290
:102270006174757200504554472045696E737465EA
:102280006C6C756E67656E00504C412045696E73CD
:1022900074656C6C756E67656E0041626BC3BC687B
:1022A0006C656E005045544720566F7277C3A47218
:1022B0006D656E00504C4120566F7277C3A4726DED
:1022C000656E004CC3BC6674657200426574740030
:1022D00044C3BC73650048617570746D656EC3BCA2
:1022E000004261627973746570205A00466C7573A0
:1022F0007372617465004CC3BC667465720042659C
:1023000074740044C3BC7365004765736368772EBB
:102310000048617570746D656EC3BC002568753AC0
:1023200025303268750025303268753A25303268BC
:102330007500256875642025303268753A2530327D
:102340006875002020202020202000202020200050
:102350001FE020102010201010201020201020102E
:1023600030300840048003001FE03FF03FF03FF0B2
:102370001FE01FE03FF03FF03FF00FC00780030079
:102380003FFFF038007030FC3020FC102078102027
:1023900030102C00D02E31D02F7BD02F7BD02E317F
:1023A000D02C00D020301020781020FC1030FC30D1
:1023B0003800703FFFF03FFFF03800703186302367
:1023C00087102787902F87D02F03D02030102078B8
:1023D000102078102030102F03D02F87D02787901F
:1023E0002387103186303800703FFFF01FFFF81F41
:1023F000FFF80410400208200208200410400820C2
:1024000080104100104100082080041040000000AE
:102410001FFFF81FFFF80000000000000000000090
:1024200000000000000000000000000000000000AC
:1024300000000000000000000000000000001EF787
:102440009C04003F633E0C006363633C0060636375
:102450000C006063630C003C63630C001E36630C6D
:10246000000336630C000336630C00631C630C002E
:102470007E1C3E3F003C081C3F00000000000000A6
:10248000000000000000000000000000000000004C
:10249000000000000000000000000000000000003C
:1024A00000004D656469756D20656E746665726EB9
:1024B00074004D656469756D2065726B616E6E7434
:1024C00000534F564F4C2053563031206265726591
:1024D000697400447275636B742E2E2E00447275FD
:1024E000636B206162676562726F6368656E004D41
:1024F00032350053442D447275636B2070617573DF
:10250000696572656E000000914300007A43000027
:102510009B43000000000000000000000000290AAA
:10252000002062797465733B2063726320005365F9
:102530007474696E67732053746F72656420280029
:10254000454550524F4D206461746173697A65202E
:102550006572726F722E0A00290A00206279746512
:10256000733B2063726320002073746F7265642074
:1025700073657474696E67732072657472696576C9
:102580006564202800202863616C63756C61746544
:102590006429210A0020213D2000454550524F4D1D
:1025A00020435243206D69736D61746368202D2050
:1025B0002873746F7265642920002053697A653A24
:1025C0002000496E6465783A2000204D61726C6984
:1025D0006E3D563734290A00454550524F4D2076FE
:1025E000657273696F6E206D69736D6174636820C5
:1025F00028454550524F4D3D0048617264636F64F9
:1026000065642044656661756C74205365747469F3
:102610006E6773204C6F616465640A000000FA43C2
:102620000000FA430000A0400000C8410000A042A2
:102630000000A0420000C8430080CF43F401000026
:10264000F401000064000000E803000020204D3683
:102650003033200020204D34313220530046696C45
:10266000616D656E742072756E6F75742073656E22
:10267000736F723A0A002055004C0046696C616D18
:10268000656E74206C6F61642F756E6C6F61642071
:102690006C656E677468733A0A0020204D393030DB
:1026A000204B004C696E65617220416476616E63F7
:1026B000653A0A0020204D323039205300417574AC
:1026C0006F2D526574726163743A20533D302074EB
:1026D0006F2064697361626C652C203120746F20F7
:1026E000696E7465727072657420452D6F6E6C79B9
:1026F000206D6F76657320617320726574726163FB
:10270000742F7265636F7665720A00204600205749
:102710000020204D3230382053005265636F7665BB
:10272000723A20533C6C656E6774683E20463C7577
:102730006E6974732F6D3E0A0020460020570020FA
:10274000204D323037205300526574726163743A01
:1027500020533C6C656E6774683E20463C756E691C
:1027600074732F6D3E205A3C6C6966743E0A0020DB
:10277000204D343133205300506F7765722D4C6FEC
:102780007373205265636F766572793A0A0020444C
:102790000020490020204D33303120500050494462
:1027A0002073657474696E67733A0A0020460020CE
:1027B000420020480020204D3134352053004D6127
:1027C00074657269616C20686561747570207061F0
:1027D00072616D65746572733A0A0020204D323063
:1027E00036205800486F6D65206F66667365743AD1
:1027F0000A00204A0020540020530020204D32308F
:1028000035204200204A3C6A756E635F6465763EFF
:1028100000416476616E6365643A20423C6D696E86
:102820005F7365676D656E745F74696D655F757301
:102830003E20533C6D696E5F6665656472617465C8
:102840003E20543C6D696E5F74726176656C5F66A4
:10285000656564726174653E00205400205200205A
:10286000204D323034205000416363656C657261E5
:1028700074696F6E2028756E6974732F7332293AEC
:1028800020503C7072696E745F616363656C3E20BA
:10289000523C726574726163745F616363656C3E20
:1028A00020543C74726176656C5F616363656C3E55
:1028B0000A0020204D3230312058004D6178696D7A
:1028C000756D20416363656C65726174696F6E201C
:1028D00028756E6974732F7332293A0A0020204DCF
:1028E0003230332058004D6178696D756D20666512
:1028F000656472617465732028756E6974732F73D3
:10290000293A0A0053746570732070657220756EE1
:1029100069743A0A0020204D3230302044300A00D9
:1029200020204D3230302044002044697361626CB5
:1029300065640A0046696C616D656E742073657428
:1029400074696E67733A0020204D3134392043207A
:102950003B20556E69747320696E2043656C736902
:1029600075730A0020286D6D290020204732312020
:102970002020203B20556E69747320696E206D6D98
:10298000006F70656E0054524947474552454400F8
:102990003A200066696C616D656E74007A5F6D69DE
:1029A0006E00795F6D696E00785F6D696E005265CB
:1029B000706F7274696E6720656E6473746F7020D7
:1029C0007374617475730A00205A3A0020593A00F2
:1029D00020436F756E7420583A0020453A00205A03
:1029E0003A0020593A00583A0020746F6F206C6FFB
:1029F0006E6720657874727573696F6E207072658A
:102A000076656E7465640A0020636F6C6420657877
:102A100074727573696F6E2070726576656E746519
:102A2000640A00486F6D696E672067657363686547
:102A3000697465727400000000000000000000006E
:102A400000000000484200004842000080405761FA
:102A5000726E696E673A20486F6D696E67204275C5
:102A60006D702044697669736F72203C20310A00D2
:102A70000202040000A0400000A04000000040004E
:102A800000914300007A4300009B43FFFFFF24F4C2
:102A9000D43050C38E20C2A24017828B7011127A9C
:102AA000910D816CD90AA861E108C7586607615188
:102AB00043061E4B5D05C145A7041A411104093D9B
:102AC0009803713931034036DB0265339102D4300B
:102AD0005402802E1D02632CEE01752AC501B02818
:102AE000A001102781018F2564012B244B01E022D6
:102AF0003401AC211F018D200D01801FFC00841EBC
:102B0000ED00971DDF00B81CD200E61BC600201B9D
:102B1000BC00641AB200B219A8000A19A0006A1811
:102B20009900D117910040178B00B516840031161B
:102B30007E00B31579003A157300C7146F0058145E
:102B40006A00EE1366008813630025135E00C71247
:102B50005B006C12570015125400C1115100701126
:102B60004F0021114B00D61049008D104700461030
:102B7000440002104200C00F4000800F3E00420F90
:102B80003C00060F3B00CB0E3800930E37005C0E66
:102B90003500270E3400F30D3200C10D3100900DC9
:102BA0003000600D2E00320D2D00050D2C00D90CCB
:102BB0002B00AE0C2900850C29005C0C2700350C7D
:102BC00027000E0C2600E80B2400C40B2400A00BE9
:102BD00023007D0B23005A0B2100390B2100180B19
:102BE0002000F80A1F00D90A1E00BB0A1E009D0A19
:102BF0001D00800A1D00630A1C00470A1B002C0AE6
:102C00001B00110A1A00F7091A00DD091900C4098E
:102C10001900AB091900920917007B091800630914
:102C200017004C09160036091600200916000A097B
:102C30001500F5081500E0081400CC081400B808C9
:102C40001400A4081400900813007D0812006B08FB
:102C50001300580812004608120034081100230817
:102C600011001208110001081100F0071000E00720
:102C70001000D0071000C0071000B0070F00A10718
:102C8000100091070E0083070F0074070F006507FF
:102C90000E0057070E0049070E003B070D002E07D8
:102CA0000E0020070D0013070D0006070D00F906A2
:102CB0000C00ED060D00E0060C00D4060C00C80662
:102CC0000C00BC060C00B0060C00A4060B00990614
:102CD0000C008D060B0082060B0077060B006C06BD
:102CE0000B0061060A0057060B004C060A0042065C
:102CF0000A0038060A002E060A0024060A001A06F0
:102D00000A001006090007060A00FD050900F4057F
:102D10000900EB050900E2050900D9050900D00505
:102D20000900C7050900BE050900B5050800AD0585
:102D30000800A50509009C050800940508008C05FD
:102D40000800840508007C050800740508006C056F
:102D50000700650508005D050700560508004E05DB
:102D60000700470507004005080038050700310542
:102D700007002A050700230507001C0506001605A5
:102D800007000F0507000805060002050700FB0401
:102D90000600F5040700EE040600E8040600E2045D
:102DA0000700DB040600D5040600CF040600C904B2
:102DB0000600C3040600BD040600B7040600B10403
:102DC0000500AC040600A6040600A00405009B0450
:102DD000060095040500900406008A040500850499
:102DE0000500800406007A040500750405007004DF
:102DF00005006B04050066040500610405005C0421
:102E0000050057040500520405004D040500480460
:102E10000500430405003E0404003A04050035049F
:102E20000500300404002C040500270404002304DA
:102E300005001E0404001A04040016040500110411
:102E400004000D0404000904050004040400000447
:102E50000400FC030400F8030400F4030400F0037E
:102E60000400EC030400E8030400E4030400E003AE
:102E70000400DC030400D8030400D4030400D003DE
:102E80000400CC030400C8030300C503030024F4BA
:102E900004D9201BC40C5C0E9804C4095F026507AA
:102EA0007101F405F900FB04B30048048700C10375
:102EB00069005803550003034500BE023A0084022E
:102EC000310053022A002902250004022000E401F7
:102ED0001C00C8011900AF011700980114008401FB
:102EE0001300710110006101100051010E00430137
:102EF0000D0036010B002B010B0020010B0015010A
:102F000009000C01090003010800FB000800F300A0
:102F10000800EB000700E4000600DE000600D80011
:102F20000600D2000600CC000500C7000500C20064
:102F30000500BD000400B9000400B5000400B100A4
:102F40000400AD000400A9000400A5000300A200D5
:102F500003009F0004009B000300980003009500FD
:102F6000020093000300900003008D0002008B001C
:102F70000300880002008600020084000300810034
:102F800002007F0002007D0002007B000200790049
:102F90000200770001007600020074000200720057
:102FA0000100710002006F0002006D0001006C0062
:102FB00002006A000100690002006700010066006B
:102FC0000100650001006400020062000100610070
:102FD0000100600001005F0002005D0001005C0074
:102FE00001005B0001005A00010059000100580077
:102FF0000100570001005600010055000100540077
:103000000100530000005300010052000100510074
:103010000100500001004F0001004E0000004E0072
:1030200001004D0001004C0001004B0000004B006E
:1030300001004A000100490001004800000048006A
:103040000100470001004600000046000100450065
:10305000000045000100440001004300000043005F
:103060000100420000004200010041000000410058
:103070000100400001003F0000003F0001003E0051
:1030800000003E0001003D0000003D0001003C004A
:1030900000003C0000003C0001003B0000003B0041
:1030A00001003A0000003A00010039000000390038
:1030B000010038000000380000003800010037002F
:1030C0000000370001003600000036000000360026
:1030D000010035000000350000003500010034001B
:1030E0000000340000003400010033000000330011
:1030F0000000330001003200000032000000320006
:1031000001003100000031000000310001003000FA
:10311000000030000000300001002F0000002F00F0
:1031200000002F0000002F0001002E0000002E00E4
:1031300000002E0001002D0000002D0000002D00D9
:1031400000002D0001002C0000002C0000002C00CD
:1031500000002C0001002B0000002B0000002B00C1
:1031600000002B0001002A0000002A0000002A00B5
:1031700000002A00010029000000290000002900A9
:10318000000029000000290001002800000028009C
:10319000000028000000280000002800010027008F
:1031A0000000270000002700000027000000270083
:1031B0000100260000002600000026000000260076
:1031C0000000260001002500000025000000250069
:1031D000000025000000250000002500010024005B
:1031E000000024000000240000002400000024004F
:1031F0000100230000002300000023000000230042
:103200000000230000002300000023000100220032
:103210000000220000002200000022000000220026
:103220000000220001002100000021000000210018
:10323000000021000000210000002100000021000A
:1032400001002000000020000000200000002000FD
:1032500000002000000020000000200000002000EE
:1032600001001F0000001F0000001F0000001F00E1
:1032700000001F0000001F0000001F0001001E00D2
:1032800000001E0000001E0000001E000000C231F1
:1032900000001C260000F4190000D80F0000EB0805
:1032A0000000C004000075020000400100004265FB
:1032B000747400453100626564002C207379737466
:1032C000656D2073746F707065642120486561744A
:1032D00065725F49443A200048656174696E6720F1
:1032E0006661696C656400546865726D616C20523A
:1032F000756E61776179004845495A454E204552BF
:10330000464F4C474C4F530048656174696E6720C7
:103310006661696C656400546865726D616C205209
:10332000756E6177617900200820C39C4245525335
:10333000434852495454454E004D415854454D5010
:103340002074726967676572656400200820554EB5
:1033500054455253434852495454454E004D494EEA
:1033600054454D5020747269676765726564004DFD
:10337000383420582059205A204500202F00204260
:10338000403A0020403A0020573A007C3C3E5E2BF9
:103390003D3F2F5B5D3B2C2A225C0070012C01908D
:1033A000012701B0012201C0011D01F00118011027
:1033B00002130130020E016002090190020401C0F3
:1033C00002FF000003FA004003F5008003F000D084
:1033D00003EB002004E6007004E100E004DC0040A0
:1033E00005D700C005D2004006CD00D006C8008039
:1033F00007C3003008BE00F008B900C009B400B02F
:103400000AAF00B00BAA00D00CA500000EA000501F
:103410000F9B00C01096005012910000148C00C049
:10342000158700B0178200B0197D00D01B7800000E
:103430001E730040206E0090226900F0246400405A
:10344000275F0090295A00E02B5500102E500020D5
:10345000304B0010324600E033410090353C001004
:1034600037370070383200A0392D00B03A2800A05C
:103470003B2300603C1E00103D1900903D140010DD
:103480003E0F00703E0A00C03E0500003F000040B5
:103490003FFBFF803FF6FFC03FF1FF43616E6E6F61
:1034A00074206F70656E20737562646972200053BA
:1034B000442063617264206F6B0A006F70656E5206
:1034C0006F6F74206661696C65640A00766F6C7555
:1034D0006D652E696E6974206661696C65640A00A9
:1034E000534420696E6974206661696C0A004D322C
:1034F00034004D32332025730057726974696E674A
:1035000020746F2066696C653A20002E0A006F7087
:10351000656E206661696C65642C2046696C653A4D
:1035200020002E0A006F70656E206661696C65640C
:103530002C2046696C653A200046696C65207365ED
:103540006C65637465640A002053697A653A2000EB
:1035500046696C65206F70656E65643A200066721E
:1035600065736800646F696E67002066696C653A10
:1035700020004E6F772000454E4420535542524F55
:103580005554494E450A002220706F730022207066
:103590006172656E743A2200535542524F55544938
:1035A0004E452043414C4C207461726765743A2249
:1035B00000747279696E6720746F2063616C6C208F
:1035C0007375622D67636F64652066696C6573202F
:1035D0007769746820746F6F206D616E79206C65F7
:1035E00076656C732E204D4158206C6576656C2095
:1035F00069733A310A002E0A0044656C6574696F7C
:103600006E206661696C65642C2046696C653A20A1
:103610000046696C652064656C657465643A0057A2
:10362000726974696E6720746F2066696C653A20F0
:10363000002E0A006F70656E206661696C65642CEF
:103640002046696C653A2000000021002400270014
:103650002A002D00300033000101000004010701A1
:103660000A0100002200250028002B002E00310056
:10367000340002010000050108010B0100002000D8
:103680002300260029002C002F003200000100003A
:1036900003010601090105050505070508080808D5
:1036A000020202020A0A08080404040401010101DA
:1036B00001010101030303030303030304070707D5
:1036C0000C0C0C0C0C0C0C0C02020202060606067A
:1036D000060606060B0B0B0B0B0B0B0B0102102047
:1036E0002008081020401020408002010201080438
:1036F00002010102040810204080804020100804CC
:103700000201800402018040201008040201080424
:103710000201010204081020408001020408102068
:10372000408000000A0B02090C0D0E08070304017B
:103730000000000000000000000000000000000089
:103740000000000000000000000000000000121156
:103750001000000000000000000000000000000059
:103760000000000000000000020000000000000057
:103770000000000000000000000000000000000049
:103780000000000000000000000000000000000039
:103790000000000000000000000000000000000029
:1037A0000000000000000000000000000000000019
:1037B0000000000000000000000000000000000009
:1037C00000000000000000000000000000000000F9
:1037D00000000000000000000000000000000000E9
:1037E00000000000000000000000000000000000D9
:1037F00000000000000000000000000000000000C9
:1038000000000000000000000000000000000000B8
:1038100000000000000000000000000000000000A8
:103820000000000000000000000000000000000098
:103830000000000000000000000000000000000088
:103840000000000000000000000000000000000078
:103850000000000000000000000000000000000068
:103860000000000000000000000000000000000058
:103870000000000000000000000000000000000048
:103880000000000000000000000000000000000038
:103890000000000000000000000000000000000028
:1038A0000000000000000000000000000000000018
:1038B0000000000000000000000003E40000000021
:1038C00000078000F03FFF000000041C0000000023
:1038D000000180031C0781C00000080C00000000EC
:1038E000000180030E0780E00000100400000000CB
:1038F000000180030E07807000001004000000002B
:10390000000180030E078070000018000000000016
:10391000000180000E07803800001C00000000003D
:10392000000180000E07803800001FC0000000006A
:10393000000180000C07803800000FF803E1F878E0
:103940003E0180001007803C000007FC0C30700036
:10395000C3018001F007803C000001FE1C187021AB
:10396000C18180001C07803C0000001E1C1C380127
:10397000C1C180000E07803C000000063C1C38439B
:10398000C1C1800007078038000000023C1C1C03F6
:10399000C1C1800007078038000000023C1C1C8366
:1039A000C1C1800007078038000010023C1C0E03D4
:1039B000C1C1800707078070000010021C1C0F01A6
:1039C000C1C1800707078070000018041C18060199
:1039D000C18180060E0780E000001C080C30060044
:1039E000C30180020C0781C0000013F003E0000057
:1039F0003E07E001F03FFF00000000000000000073
:103A000000000000000000000000000000000000B6
:103A100000000000000000000000000000000000A6
:103A20000000000000000000000000000000000096
:103A30000000000000000000000000000000000086
:103A40000000000000000000000000000000000076
:103A50000000000000000000000000000000000066
:103A60000000000000000000000000000000000056
:103A70000000000000000000000000000000000046
:103A80000000000000000000000000000000000036
:103A90000000000000000000000000000000000026
:103AA0000000000000000000000000000000000016
:103AB0000000000000000000000000000000000006
:103AC00000000000000000000000000000000000F6
:103AD00000000000000000000000000000000000E6
:103AE00000000000000000000000000000000000D6
:103AF00000000000000000000000000000000000C6
:103B000000000000000000000000000000000000B5
:103B100000000000000000000000000000000000A5
:103B20000000000000000000000000000000000095
:103B30000000000000000000000000000000000085
:103B40000000000000000000000000000000000075
:103B50000000000000000000000000000000000065
:103B60000000000000000000004D313030302053D4
:103B7000002020506C616E6E6572427566666572DB
:103B800042797465733A20002046726565204D6560
:103B90006D6F72793A2000436F6D70696C65643A9D
:103BA000204F637420313620323032300A00204CEE
:103BB00061737420557064617465643A20323031E9
:103BC000392D31322D3031207C20417574686F726F
:103BD0003A204E6F6D697339370A00322E302E301D
:103BE0000A004D61726C696E0020536F66747761D4
:103BF00072652052657365740A00205761746368AA
:103C0000646F672052657365740A002042726F7793
:103C10006E206F75742052657365740A00204578B4
:103C20007465726E616C2052657365740A00506F22
:103C300077657255700A0073746172740A00617559
:103C4000746F25632E6700473238585900657272C9
:103C50006F722077726974696E6720746F2066696D
:103C60006C650A00446F6E6520736176696E67202B
:103C700066696C652E0A004D323900456E647374B6
:103C80006F70700025532025632025632025632055
:103C9000256300205A3A0020593A0020583A00651E
:103CA0006E6473746F7073206869743A2000202505
:103CB00073206D6D000020302C312020206D6D00B0
:103CC00020312C302020206D6D0031302C30202010
:103CD000206D6D0041636873656E2062657765676E
:103CE000656E00486F74656E64207A75206B616C38
:103CF0007400426577656765204578747275646500
:103D00007200426577656765205A0042657765678E
:103D10006520590042657765676520580046696CE3
:103D2000616D656E74207765636873656C6E0046BF
:103D3000696C616D656E7420656E746C6164656E2E
:103D40000046696C616D656E74206C6164656E001F
:103D50005045544720566F7277C3A4726D656E004C
:103D6000504C4120566F7277C3A4726D656E00622D
:103D7000656E75747A65726465662E204865697A29
:103D8000656E005A7572C3BC636B00447275636BD9
:103D900020766F6D204D656469756D00566F726891
:103DA00065722025732573257320686F6D656E001D
:103DB000496E736572742066696C616D656E7420FE
:103DC000616E6420707265737320627574746F6EB7
:103DD0000A00220A00556E6B6E6F776E20636F6D5E
:103DE0006D616E643A20220020746F6F206C6F6EDC
:103DF0006720657874727573696F6E20707265766E
:103E0000656E7465640A0020636F6C642065787465
:103E1000727573696F6E2070726576656E74656415
:103E20000A00204500205A00205900204D39322038
:103E300058002E0A006F70656E206661696C6564BB
:103E40002C2046696C653A20002008204E494348E2
:103E50005420455252454943485400546865726D98
:103E6000616C2052756E6177617900002801A801AC
:103E700011241FBECFEFD1E2DEBFCDBF00E00CBFEB
:103E800013E0A0E0B2E0ECEEFCE302E00BBF02C006
:103E900007900D92A633B107D9F726E1A6E3B3E068
:103EA00001C01D92A134B207E1F71FE1C7E3DFE1D2
:103EB00000E006C021970109802FFE010F94CE1D5E
:103EC000C633D10780E00807A9F70F94930A0D9431
:103ED000641E0C9400001092D30485E08093BC0310
:103EE00008951092D40308950C94F235CF92DF9286
:103EF000EF92FF9223EF34E045E35FE36091EA093C
:103F00007091EB098091EC099091ED090F94531495
:103F10006B017C016091CF0F7091D00F8091D10F18
:103F20009091D20F0F94F2139B01AC01C701B6011F
:103F30000F94531429E732E84AE550E40F945314E0
:103F40000F941C1D6093020A7093030A8093040A65
:103F50009093050AFF90EF90DF90CF900895FC01B9
:103F600084910895FC0180810895CF93DF93EC0143
:103F7000CB01BA010F94F41320E030E048EC51E497
:103F80000F9453140F94E11B688379838A839B8376
:103F9000DF91CF910895CF93DF93EC01CB01BA016C
:103FA0000F94F4132AE037ED43E25CE30F945314CB
:103FB000688379838A839B83DF91CF910895CF9320
:103FC000DF93EC01CB01BA010F94F4132AE037ED33
:103FD00043E25CE30F945314688379838A839B8361
:103FE000DF91CF910895CF93DF93EC01CB01BA011C
:103FF0000F94F4132DEC3CEC4CEC5DE30F94531454
:10400000688379838A839B83DF91CF910895CF93CF
:10401000DF93EC01CB01BA010F94F41320E030E000
:1040200048EC51E40F945314688379838A839B830B
:10403000DF91CF910895CF93DF93EC01CB01BA01CB
:104040000F94F413688379838A839B83DF91CF91E4
:104050000895CF93DF93EC01CB01BA010F94F413D1
:10406000688379838A839B83DF91CF910895CF936F
:10407000DF93EC01CB01BA010F94F4132FE632E188
:1040800043E85AE30F945314688379838A839B83AC
:10409000DF91CF910895CF93DF93EC01CB01BA016B
:1040A0000F94F4130F94DA1B79836883DF91CF9117
:1040B0000895CF93DF93EC01CB01BA010F94F41371
:1040C00023E333E343E250E40F9453140F94E11BD2
:1040D0006883DF91CF91089511989091020187FD37
:1040E0009095917090930001119A00001198909111
:1040F000020186FD9095917090930001119A000045
:1041000011989091020185FD909591709093000116
:10411000119A000011989091020184FD9095917080
:1041200090930001119A000011989091020183FD73
:104130009095917090930001119A000011989091C0
:10414000020182FD9095917090930001119A0000F8
:1041500011989091020181FD9095917090930001CA
:10416000119A0000119880910201817080930001E2
:10417000119A00000895089590E080E008959091CC
:10418000A307292F30E0F901E55EFC4E8083220F62
:10419000331F220F331FF901E752F64F40910704F6
:1041A000509108046091090470910A04408351837E
:1041B000628373839F5F943040F49093A307809150
:1041C00027098F5F8093270908951092A307F7CFDF
:1041D000282F9091E403833021F495FD0FC094FDC6
:1041E0000FC0892F90E0B0E0A0E004C0B695A7957D
:1041F000979587952A95D2F78170089581E0089563
:1042000080E00895129A08950F94F4130F94DA1B26
:10421000CB010C942BAACF92DF92EF92FF926B010D
:104220007C0120E030E0A9010F94ED1320E030E0A4
:1042300040E05FE387FF04C020E030E040E05FEB58
:10424000C701B6010F946E1A0F94DA1BCB01FF90D1
:10425000EF90DF90CF900C942BAA0F94F4130C9452
:104260000B2184E00C940DF083E00C940DF082E0BF
:104270000C940DF063E972E084E690E00E9425AEB4
:104280006AEB72E084E690E00C9425AE81110C9408
:104290003A2168EB71E084E190E00C9425AE0E9435
:1042A000ABA20C9446210E946BD10C9446210F9432
:1042B000F41323E333E343E250E40F9453140F94D5
:1042C000E11B862F0C9460AACF93DF9300D01F923E
:1042D000CDB7DEB70F94F4132AE037ED43E25CE389
:1042E0000F94531469837A838B839C83CE01019648
:1042F0000E94D2A70F900F900F900F90DF91CF9157
:104300000895CF93DF9300D01F92CDB7DEB780E042
:1043100090E0A0E8B0E48093C9099093CA09A09303
:10432000CB09B093CC0989839A83AB83BC83CE013C
:1043300001960E9487A08091D204813009F44FC079
:1043400084F58823B9F180E090E0A8E4B2E48983A1
:104350009A83AB83BC83CE0101960E9487A0109202
:10436000C9091092CA091092CB091092CC0980E0B9
:1043700090E0A0E8B0E489839A83AB83BC83CE014C
:1043800001960E9487A08091D2048F5F8430CCF583
:104390008093D2040F900F900F900F90DF91CF91E8
:1043A0000895823049F1833071F680E090E0A0EF0B
:1043B000B1E419C080E090E0A0EFB1E48093C109BE
:1043C0009093C209A093C309B093C4098093C5090F
:1043D0009093C609A093C709B093C809B4CF80E0F1
:1043E00090E0A2E8B3E48093C1099093C209A0933E
:1043F000C309B093C409A7CF80E090E0ACE5B3E473
:10440000E5CF1092D204C6CFCF930E9403C70E947B
:10441000ABA2C82F882319F080E00E94B6C88C2F69
:10442000CF910C9446210C94D1900C94D1900C9483
:10443000D1900C94D190CF93DF9300D01F92CDB741
:10444000DEB70F94F4132DEC3CEC4CEC5DE30F94D1
:10445000531469837A838B839C83CE0101960E94D7
:1044600021A70F900F900F900F90DF91CF9108959B
:10447000CF93DF9300D01F92CDB7DEB70F94F41324
:104480002FE632E143E85AE30F94531469837A83A9
:104490008B839C83CE0101960E94DDEC0F900F90E0
:1044A0000F900F90DF91CF9108950C9453900C943E
:1044B00053900C9453900C945390CF93DF9300D06F
:1044C0001F92CDB7DEB70F94F41320E030E048EC34
:1044D00051E40F94531469837A838B839C83CE01B8
:1044E00001960E9471A80F900F900F900F90DF918E
:1044F000CF910895CF93DF9300D01F92CDB7DEB751
:104500000F94F41369837A838B839C83CE01019685
:104510000E9471A80F900F900F900F90DF91CF9194
:104520000895CF93DF9300D01F92CDB7DEB70F94DD
:10453000E11B0F94F21369837A838B839C83CE01F2
:1045400001960E9471A80F900F900F900F90DF912D
:10455000CF9108950F94F41320E030E048EC51E43B
:104560000F9453140C949122CF93DF9300D01F9299
:10457000CDB7DEB70F94F4132AE037ED43E25CE3E6
:104580000F94531469837A838B839C83CE010196A5
:104590000E94F7A80F900F900F900F90DF91CF918E
:1045A0000895AF92BF92CF92DF92EF92FF920F9356
:1045B0001F93CF93DF936B01E9014A3009F4C1C027
:1045C000453109F073C0DB011296ED91FC91F28048
:1045D000C681D7818091020180958270809300010D
:1045E00088E28A950000E9F7BF2CB29420EFB2224E
:1045F00030E1A32EAF0C48E2E42E88EF0E946C203D
:104600008E2D8A950000E9F7BFE1BF1508F485C03B
:104610008F2D807780680E946C208B2D0E946C20EB
:104620008E2D8A950000E9F780E80E946C2080E0DA
:104630000E946C208E2D8A950000E9F78AEF0E9477
:104640006C208E2D8A950000E9F78E01005F1F4FC8
:104650008881807F0E946C2089918295807F0E9452
:104660006C20C017D107A1F78E2D8A950000E9F7BD
:10467000F394E0E1BE0EFA10C0CF80910201827087
:1046800080930001D6011296CD91DC91CE010E945B
:1046900032F58111F7C1DF91CF911F910F91FF90FA
:1046A000EF90DF90CF90BF90AF900895FB01028113
:1046B0001381423309F4A1C108F4A5C1463409F4B9
:1046C00092C1473409F495C14B3329F589812B8177
:1046D000D80112966C91129713964C91213009F4DF
:1046E000E8C1233009F0B2C138EF380F582F91E0FC
:1046F000431708F490E041E0531708F040E031E040
:10470000561708F430E0592F542B352309F0C6C151
:10471000942309F0C3C181E0BECF80EE8F0D806885
:10472000807F0E946C208F2D8295807F0E946C205C
:104730008E2D8A950000E9F780E80E946C2080E8C1
:1047400077CF809101018260809301018091020105
:10475000827080930001809101018160809301014A
:1047600080910201817080930001099A119A8091D1
:104770000201809582708093000188E28A95000092
:10478000E9F788E790E0CEE9DFE0FE013197F1F745
:104790000197D9F788EF0E946C2018E2812F8A9543
:1047A0000000E9F780E20E946C2080E00E946C200B
:1047B000812F8A950000E9F780E00E946C2080E854
:1047C0000E946C20812F8A950000E9F780E00E940A
:1047D0006C2080E10E946C20812F8A950000E9F70F
:1047E000CE010197F1F7CE010197F1F7CE010197C4
:1047F000F1F7CE010197F1F7CE010197F1F7CE0164
:104800000197F1F7CE010197F1F7CE010197F1F78A
:10481000CE010197F1F7CE010197F1F7CE01019793
:10482000F1F7CE010197F1F7CE010197F1F7CE0133
:104830000197F1F72197F1F780E20E946C2080E464
:104840000E946C20812F8A950000E9F780E20E9487
:104850006C2080E60E946C201A950000E9F710E0B9
:10486000D0E0C8E28D2F807780680E946C20812F75
:104870000E946C208C2F8A950000E9F780E80E9446
:104880006C2080E00E946C208C2F8A950000E9F754
:104890008AEF0E946C208C2F8A950000E9F790E245
:1048A000119880910201817080930001119A00009B
:1048B000119880910201817080930001119A00008B
:1048C000119880910201817080930001119A00007B
:1048D000119880910201817080930001119A00006B
:1048E000119880910201817080930001119A00005B
:1048F000119880910201817080930001119A00004B
:10490000119880910201817080930001119A00003A
:10491000119880910201817080930001119A00002A
:10492000119880910201817080930001119A00001A
:10493000119880910201817080930001119A00000A
:10494000119880910201817080930001119A0000FA
:10495000119880910201817080930001119A0000EA
:10496000119880910201817080930001119A0000DA
:10497000119880910201817080930001119A0000CA
:10498000119880910201817080930001119A0000BA
:10499000119880910201817080930001119A0000AA
:1049A0008C2F8A950000E9F7915009F079CF88EFB4
:1049B0000E946C208C2F8A950000E9F7DF5F105F62
:1049C000D03209F04FCF80E00E946C2080EC0E9432
:1049D0006C20CA950000E9F78091020182708093F3
:1049E000000181E058CED80115968C91888381E032
:1049F00052CEF80181818883FACFB901C8010E94A3
:104A00001CF581E048CE443171F0473109F083CE86
:104A10001882F80182818983858181508A8383810C
:104A20008B8381E038CED80115964C91159750E0D4
:104A3000440F551F70E060E016968D919C910F9485
:104A4000FC1DC8010E9448F581E025CE481708F4F6
:104A500062CE861708F45FCEFA80E12CD12C243088
:104A600070F41DC0BE01C8010E941CF589819881A7
:104A70009D0D98838E0D8983FF0C09F44CCEF7FEB3
:104A8000F6CFF0CF4D8150E0440F551F70E060E04D
:104A90008E819F810F94FC1D81E0FDCDFA8030E076
:104AA000F901E757FD4FD0802B573D4FF901E080CA
:104AB000E6CF58E0580F382F1ACEDF92EF92FF92D0
:104AC0000F931F93CF93DF93EC01D62E1CAD0BAD4C
:104AD0007C0184E0E80EF11CE98DFA8DC70119957F
:104AE000412F480F2D2D602FC7010E9499F89BADD3
:104AF000890F8BAF81E090E0DF91CF911F910F91F3
:104B0000FF90EF90DF9008958F929F92AF92BF92A7
:104B1000CF92DF92EF92FF920F931F93CF93DF9389
:104B2000EC018B017A018A859B858617970731F006
:104B3000888199810E9473F71B870A8788859985E8
:104B4000019641F50C81DA808E81D80EA880B9805B
:104B5000D5015596ED91FC91C5011995080F10E00E
:104B6000F70121917F0121114FC08E819F81810F1B
:104B7000911D9F838E8390E080E0DF91CF911F9104
:104B80000F91FF90EF90DF90CF90BF90AF909F90EC
:104B90008F900895CE80DF80F701008110E0002320
:104BA00021F1A880B980602FC5010E94CBF7D50103
:104BB00051961C9111954701BFEF8B1A9B0AF40186
:104BC00081914F01882351F0D50150969C91190F86
:104BD000082F682FC5010E94CBF7F1CF003281F07A
:104BE000F50183899189890F180FC10ED11C288581
:104BF00039852C153D0508F0A5CF81E090E0BDCFAB
:104C0000D50150968C91F0CF402F6D2DC5010E949B
:104C100099F8D80E180FA4CFEF92FF920F931F931D
:104C2000CF93DF93CDB7DEB72C970FB6F894DEBFE6
:104C30000FBECDBF10911813009119132091DB0402
:104C400021111BC04FEF5FE0602F812F0E9405F9FB
:104C500090E080E0180F1093181300931913992710
:104C60002C960FB6F894DEBF0FBECDBFDF91CF916B
:104C70001F910F91FF90EF900895E090E512F09052
:104C8000E61221EE32E13A832983212F30E03C8382
:104C90002B83202F30E03E832D8318861F827A8756
:104CA00069871C861B869E012F5F3F4F4FEA5FE19D
:104CB000BC01C7010E945DD7B70181EE92E10E945D
:104CC00073F78F819885C6CFAB01BC014093261343
:104CD0005093271360932813709329138BE894E162
:104CE0000C9472FF8091C2039091C303009731F03E
:104CF0004AE050E070E060E00D940A1260E070E07D
:104D0000CB0108958091C2039091C303009731F0C5
:104D10004AE050E070E060E00D94DC1060E070E08C
:104D2000CB0108958F929F92AF92BF92CF92DF9264
:104D3000EF92FF921F93CF93DF9300D000D01F928A
:104D40001F92CDB7DEB79091D403981709F464C0D1
:104D5000182F4091F0045091F1046091F204709189
:104D6000F30480E1E1ECF9E0AEE2B5E001900D92F0
:104D70008A95E1F78091EF0F9091F00FA091F10FDC
:104D8000B091F20F8D839E83AF83B887112309F40E
:104D900055C04093D1095093D2096093D3097093C1
:104DA000D40984EF94E00E9420A0C090D509D0904F
:104DB000D609E090D709F090D80920E030E0A901A9
:104DC000C701B6010F94ED13811124C08090F8043F
:104DD0009090F904A090FA04B090FB042AE037ED1B
:104DE00043E25CE3C501B4010F94CE1C181694F4A1
:104DF000A5019401C701B6010F946E1A6093D509FD
:104E00007093D6098093D7099093D809CE0105965F
:104E10000E9420A01093D40328960FB6F894DEBF0A
:104E20000FBECDBFDF91CF911F91FF90EF90DF902C
:104E3000CF90BF90AF909F908F90089520E030E08A
:104E4000A9016091D5097091D6098091D7099091F7
:104E5000D8090F94ED13882361F01092D5091092B0
:104E6000D6091092D7091092D809CE0105960E9452
:104E700020A0C090FC04D090FD04E090FE04F090CF
:104E8000FF0420E030E0A901C701B6010F94ED1343
:104E90008823C1F0A70196016091CD097091CE09D8
:104EA0008091CF099091D0090F946D1A6093CD092C
:104EB0007093CE098093CF099093D0098DEC99E03F
:104EC0000E9406911092D1091092D2091092D30932
:104ED0001092D4098091000590910105A0910205DE
:104EE000B091030589839A83AB83BC83CE0101967D
:104EF0008FCFCF93DF93CDB7DEB720E248855985BA
:104F00006F818E810E9446ECDF91CF910895282F0A
:104F10001092480980914C0990914D09A0914E0939
:104F2000B0914F09B7FF08C010924C0910924D097B
:104F300010924E0910924F098091DC04882331F0C1
:104F400080914C098093400910925C0980913F093F
:104F50001816FCF4082E000C990B821B9109209165
:104F60004009022E000C330B2817390794F097FFE5
:104F700002C090E080E080934009092E000CAA0B4B
:104F8000BB0B80934C0990934D09A0934E09B093AD
:104F90004F09809140096623A9F090914109891732
:104FA00014F48093410920914109022E000C330B27
:104FB0002C5F3F4F482F082E000C550B2417350748
:104FC0001CF48450809341090895E091C004E630B8
:104FD00010F581E08E0F8093C00440914C095091F0
:104FE0004D0960914E0970914F099091410980914E
:104FF0003F0928E0E29FF0011124E057FB4F209188
:10500000DB123091DC12318320834283538364832B
:105010007583968387830895AF92BF92CF92DF9274
:10502000EF92FF920F931F93CF93DF93EC015B01FD
:105030008A01FB01199587FD16C0C82ED12CF12CD1
:10504000E12C2196F801C082D182E282F382CE0166
:10505000DF91CF911F910F91FF90EF90DF90CF9054
:10506000BF90AF900895982F907E903CA9F48F71D7
:1050700090E0B0E0A0E06C017D0126E0CC0CDD1CEE
:10508000EE1CFF1C2A95D1F7CE010196F50119956A
:105090008F73C82A2296D6CF982F907F903E11F515
:1050A0008F7090E0B0E0A0E06C017D0186E0CC0C58
:1050B000DD1CEE1CFF1C8A95D1F7CE010196F5018F
:1050C00019958F73C82A96E0CC0CDD1CEE1CFF1CD2
:1050D0009A95D1F7CE010296F50119958F73C82ADA
:1050E0002396B0CF982F987F903F79F5877090E006
:1050F000B0E0A0E06C017D01F6E0CC0CDD1CEE1C04
:10510000FF1CFA95D1F7CE010196F50119958F7321
:10511000C82AA6E0CC0CDD1CEE1CFF1CAA95D1F71A
:10512000CE010296F50119958F73C82AB6E0CC0C12
:10513000DD1CEE1CFF1CBA95D1F7CE010396F501DC
:1051400019958F73C82A24967DCF982F9C7F983FFE
:10515000E1F5837090E0B0E0A0E06C017D0156E0E5
:10516000CC0CDD1CEE1CFF1C5A95D1F7CE0101962C
:10517000F50119958F73C82A66E0CC0CDD1CEE1C76
:10518000FF1C6A95D1F7CE010296F50119958F7330
:10519000C82A76E0CC0CDD1CEE1CFF1C7A95D1F7FA
:1051A000CE010396F50119958F73C82AE6E0CC0C61
:1051B000DD1CEE1CFF1CEA95D1F7CE010496F5012B
:1051C00019958F73C82A25963DCF982F9E7F9C3FB7
:1051D00009F049C0817090E0B0E0A0E06C017D0171
:1051E00086E0CC0CDD1CEE1CFF1C8A95D1F7CE01AD
:1051F0000196F50119958F73C82A96E0CC0CDD1C39
:10520000EE1CFF1C9A95D1F7CE010296F501199577
:105210008F73C82A26E0CC0CDD1CEE1CFF1C2A95DF
:10522000D1F7CE010396F50119958F73C82A36E0A0
:10523000CC0CDD1CEE1CFF1C3A95D1F7CE01049678
:10524000F50119958F73C82A46E0CC0CDD1CEE1CC5
:10525000FF1C4A95D1F7CE010596F50119958F737C
:10526000C82A2696EFCE982F907C903841F4807C07
:10527000803869F42196CE01F5011995F8CF8E7F1B
:105280008D3F28F02196CE01F5011995F8CFC12C5C
:10529000D12C7601D7CE1F93CF93DF9300D01F92EE
:1052A000CDB7DEB710E0AE014F5F5F4F6FEA7FE131
:1052B0000E940C2849815A816B817C81452B462BA9
:1052C000472B11F01F5FEFCF812F0F900F900F90A2
:1052D0000F90DF91CF911F9108953F924F925F926F
:1052E0006F927F928F929F92AF92BF92CF92DF92F6
:1052F000EF92FF920F931F93CF93DF9300D01F92F3
:10530000CDB7DEB7480140904C0950904D096090F0
:105310004E0970904F09411451046104710479F0F1
:10532000E1E0141415040CF0E0E0E093D1041092D5
:105330004C0910924D0910924E0910924F0910918C
:10534000D10430903E0910923E09311005C0E09121
:105350005A02EE2309F471C03C832B832A013B01DE
:105360005C01C4010E944B29082F80E0C114D104C4
:1053700019F0C6010E944B291A821982E114F10426
:10538000B1F4402F50E0282F30E0CA01820F931F64
:1053900046976CF485E190E0841B950B821B930B80
:1053A00097FD0196959587958A8381E0898301E031
:1053B0002FEA3FE1A401BE016F5F7F4FCE0102964D
:1053C0000E9404B9E114F10491F08A81882321F04C
:1053D0001A8289818F5F898300E022EB3FE1A70178
:1053E000BE016F5F7F4FCE0102960E9404B9C114C7
:1053F000D10459F000E02FEA3FE1A601BE016F5F42
:105400007F4FCE0102960E9404B941E04127B301CB
:1054100081E00E9409F7C5010E944B29412FB50187
:1054200094E1981B892F0E9409F7332031F0F20193
:10543000111102C0EB81FC8119950F900F900F9014
:105440000F90DF91CF911F910F91FF90EF90DF9020
:10545000CF90BF90AF909F908F907F906F905F9014
:105460004F903F900895CF92DF92EF92FF920F936B
:105470001F9389ECC82E81E1D82EF12CE12C0BEC86
:1054800011E123E93DE341E851E269ED71E180EE8C
:1054900091E10E946D291F910F91FF90EF90DF9095
:1054A000CF900895CF92DF92EF92FF920F931F93C8
:1054B0008DE5C82E81E1D82EF12CE12C05E711E114
:1054C00024E73FE144E052E26FE571E189E691E1D2
:1054D0000E946D291F910F91FF90EF90DF90CF9068
:1054E00008951F93CF93DF9300D01F92CDB7DEB7FF
:1054F00010E0AE014F5F5F4F62EB7FE10E940C282E
:1055000049815A816B817C81452B462B472B11F0B9
:105510001F5FEFCF812F0F900F900F900F90DF91B3
:10552000CF911F9108959CE0899F802D112491E0D7
:10553000980F9093D4042CE0280F2093B60930E004
:105540002E5F3F4F409115134217130619F014F0C8
:1055500080E00895209117139217D0F7662341F049
:105560008E5F0E94B8F68091B6098E5F0E94B8F6F1
:105570008091B60990911513891750F32091171354
:105580009091D404291720F31092181380931913C3
:1055900081E0089520918F04022E000C330B8217B6
:1055A000130641F080938F0467E873E181EE92E186
:1055B0000C9473F70895CF93DF93FC0125AD21116F
:1055C00004C021E025AF0E9453F5C091E312D091B1
:1055D000E412E0911213F091131382E01995E09117
:1055E0001213F091131381E0199530E020E044E1AB
:1055F000BE0181EE92E10E944FF524E133E147E1E3
:10560000BE0181EE92E10E944FF5E0911213F091FC
:10561000131380E0DF91CF911994EF92FF920F93D3
:105620001F93CF93DF93CDB7DEB72C970FB6F894C7
:10563000DEBF0FBECDBF6F3F71058105910509F03B
:10564000C0F48DED92E10E945D25E091E512F091AC
:10565000E6123196849190E02C960FB6F894DEBF56
:105660000FBECDBFDF91CF911F910F91FF90EF90B3
:10567000089510911813009119132091DB04211142
:105680000FC04FE150E1602F812F0E9405F990E09B
:1056900080E0180F10931813009319139927DCCF8B
:1056A000E090E512F090E61221EE32E13A83298390
:1056B000212F30E03C832B83202F30E03E832D834D
:1056C00018861F822FEF3FEF3A8729871C861B869B
:1056D0009E012F5F3F4FAB01BC01C7010E949DD6C9
:1056E000B70181EE92E10E9473F78F819885D1CF47
:1056F000DF92EF92FF920F931F93CF93DF9300D02F
:105700001F92CDB7DEB77C01062F142F112309F4A9
:1057100047C0AE014F5F5F4F6FEA7FE1C7010E9454
:105720000C287C0169817A818B819C8161157105CE
:1057300081059105A9F1DD24DA94D10E6D3371054F
:105740008105910589F06E3771058105910561F03C
:105750006A3271058105910599F565E470E080E094
:1057600090E00E940D2B1D2D602F70E089819A81A1
:10577000AB81BC81CD97A105B105F9F480E390E040
:10578000680F791F072E000C880B990B0E940D2BB8
:10579000115031F0612F70E0C7010E940C26181BD8
:1057A000812F0F900F900F900F90DF91CF911F914D
:1057B0000F91FF90EF90DF90089581E390E0E0CFAC
:1057C0000E940D2B1D2DA2CF6FEF7FEF0C940C26A6
:1057D000EF92FF920F931F93CF93DF93CDB7DEB776
:1057E0002C970FB6F894DEBF0FBECDBF10911813E3
:1057F000009119132091DB0421111BC04FED5FE0D4
:10580000602F812F0E9405F990E080E0180F10931F
:1058100018130093191399272C960FB6F894DEBF2E
:105820000FBECDBFDF91CF911F910F91FF90EF90F1
:105830000895E090E512F090E61221EE32E13A830D
:105840002983212F30E03C832B83202F30E03E83BF
:105850002D8318861F827A8769871C861B869E0186
:105860002F5F3F4F42EB5FE1BC01C7010E945DD754
:10587000B70181EE92E10E9473F78F819885C6CFC0
:10588000EF92FF920F931F93CF937B01C42F890157
:1058900041FB662760F90E94932A8823C9F1C0FF63
:1058A0001BC001151105C1F4C7010E944B2925E158
:1058B00030E0A901481B5109CA0157FD0196959591
:1058C0008795C82FC150C7FD07C060E270E080E037
:1058D00090E00E940D2BF6CF45E16091B709C7011A
:1058E0000E94782BC82FCC0FC80FCC0F01151105C3
:1058F00031F06C2F70E0C8010E94E82BC81BC73044
:1059000038F060E270E080E090E00E940D2BF6CF6E
:10591000CF911F910F91FF90EF9008956FEF7FEF60
:105920000C94E82B2F923F924F925F926F927F924E
:105930008F929F92AF92BF92CF92DF92EF92FF929F
:105940000F931F93CF93DF934C010F943A1301965B
:105950008401080F191FC8010F943A1301966801BA
:10596000C80ED91EF8016080C1E0611001C0C0E01E
:10597000F6014080D1E0411001C0D0E0AA24A394F8
:105980006110A12C60E085E00E94872750904109BA
:10599000752C9EE0E92EF12C352C31948A2D90E067
:1059A00001965C01AC0EB11CAD0EB11C71101DC096
:1059B00080915A028823A1F0E0915C02E2506EE6E9
:1059C00073E1E33038F4F0E0EE0FFF1FE357FD4FD3
:1059D0006081718130E020E043E0832D0E94402C03
:1059E000D1E0611013C0D2E011C0D2E06110D1E06B
:1059F000D7110CC080915A02882341F030E020E09A
:105A000041E0B4018D2F85190E94402CC1E0CD0FDB
:105A1000272C2518662079F0C7110BC080915A02F7
:105A2000882339F030E020E041E0B801822D0E9467
:105A3000402CC2E0CD0F442071F0C7110BC0809103
:105A40005A02882339F030E020E041E0B601822D8F
:105A50000E94402CCF5FF3E0AF16B1040CF4CF5F8F
:105A6000C7116FC080915A02882309F467C030E0E3
:105A700020E042E06DE773E1822D0E94402CD0913E
:105A8000BD0993EF9E0D9093D4048EEF8E0D8093FD
:105A9000B609209115132E151F0411F00CF04EC0FD
:105AA00020911713921708F049C09EE390931813A2
:105AB0008093191365E470E080E090E00E940D2B64
:105AC00061E36D0F062E000C770B880B990B0E947B
:105AD0000D2B60E270E080E090E00E940D2B20E052
